{
  "contractName": "DentacoinToken",
  "abi": [
    {
      "constant": true,
      "inputs": [],
      "name": "sellPriceEth",
      "outputs": [
        {
          "name": "",
          "type": "uint256"
        }
      ],
      "payable": false,
      "stateMutability": "view",
      "type": "function"
    },
    {
      "constant": true,
      "inputs": [],
      "name": "name",
      "outputs": [
        {
          "name": "",
          "type": "string"
        }
      ],
      "payable": false,
      "stateMutability": "view",
      "type": "function"
    },
    {
      "constant": false,
      "inputs": [
        {
          "name": "_spender",
          "type": "address"
        },
        {
          "name": "_value",
          "type": "uint256"
        }
      ],
      "name": "approve",
      "outputs": [
        {
          "name": "success",
          "type": "bool"
        }
      ],
      "payable": false,
      "stateMutability": "nonpayable",
      "type": "function"
    },
    {
      "constant": true,
      "inputs": [],
      "name": "totalSupply",
      "outputs": [
        {
          "name": "",
          "type": "uint256"
        }
      ],
      "payable": false,
      "stateMutability": "view",
      "type": "function"
    },
    {
      "constant": false,
      "inputs": [
        {
          "name": "_from",
          "type": "address"
        },
        {
          "name": "_to",
          "type": "address"
        },
        {
          "name": "_value",
          "type": "uint256"
        }
      ],
      "name": "transferFrom",
      "outputs": [
        {
          "name": "success",
          "type": "bool"
        }
      ],
      "payable": false,
      "stateMutability": "nonpayable",
      "type": "function"
    },
    {
      "constant": true,
      "inputs": [],
      "name": "decimals",
      "outputs": [
        {
          "name": "",
          "type": "uint8"
        }
      ],
      "payable": false,
      "stateMutability": "view",
      "type": "function"
    },
    {
      "constant": true,
      "inputs": [],
      "name": "directTradeAllowed",
      "outputs": [
        {
          "name": "",
          "type": "bool"
        }
      ],
      "payable": false,
      "stateMutability": "view",
      "type": "function"
    },
    {
      "constant": true,
      "inputs": [],
      "name": "minBalanceForAccounts",
      "outputs": [
        {
          "name": "",
          "type": "uint256"
        }
      ],
      "payable": false,
      "stateMutability": "view",
      "type": "function"
    },
    {
      "constant": true,
      "inputs": [],
      "name": "buyPriceEth",
      "outputs": [
        {
          "name": "",
          "type": "uint256"
        }
      ],
      "payable": false,
      "stateMutability": "view",
      "type": "function"
    },
    {
      "constant": true,
      "inputs": [
        {
          "name": "_owner",
          "type": "address"
        }
      ],
      "name": "balanceOf",
      "outputs": [
        {
          "name": "balance",
          "type": "uint256"
        }
      ],
      "payable": false,
      "stateMutability": "view",
      "type": "function"
    },
    {
      "constant": true,
      "inputs": [],
      "name": "owner",
      "outputs": [
        {
          "name": "",
          "type": "address"
        }
      ],
      "payable": false,
      "stateMutability": "view",
      "type": "function"
    },
    {
      "constant": true,
      "inputs": [],
      "name": "symbol",
      "outputs": [
        {
          "name": "",
          "type": "string"
        }
      ],
      "payable": false,
      "stateMutability": "view",
      "type": "function"
    },
    {
      "constant": true,
      "inputs": [],
      "name": "DentacoinAddress",
      "outputs": [
        {
          "name": "",
          "type": "address"
        }
      ],
      "payable": false,
      "stateMutability": "view",
      "type": "function"
    },
    {
      "constant": true,
      "inputs": [],
      "name": "DCNForGas",
      "outputs": [
        {
          "name": "",
          "type": "uint256"
        }
      ],
      "payable": false,
      "stateMutability": "view",
      "type": "function"
    },
    {
      "constant": true,
      "inputs": [],
      "name": "gasForDCN",
      "outputs": [
        {
          "name": "",
          "type": "uint256"
        }
      ],
      "payable": false,
      "stateMutability": "view",
      "type": "function"
    },
    {
      "constant": true,
      "inputs": [
        {
          "name": "_owner",
          "type": "address"
        },
        {
          "name": "_spender",
          "type": "address"
        }
      ],
      "name": "allowance",
      "outputs": [
        {
          "name": "remaining",
          "type": "uint256"
        }
      ],
      "payable": false,
      "stateMutability": "view",
      "type": "function"
    },
    {
      "constant": true,
      "inputs": [],
      "name": "gasReserve",
      "outputs": [
        {
          "name": "",
          "type": "uint256"
        }
      ],
      "payable": false,
      "stateMutability": "view",
      "type": "function"
    },
    {
      "constant": false,
      "inputs": [
        {
          "name": "newOwner",
          "type": "address"
        }
      ],
      "name": "transferOwnership",
      "outputs": [],
      "payable": false,
      "stateMutability": "nonpayable",
      "type": "function"
    },
    {
      "inputs": [],
      "payable": false,
      "stateMutability": "nonpayable",
      "type": "constructor"
    },
    {
      "payable": true,
      "stateMutability": "payable",
      "type": "fallback"
    },
    {
      "anonymous": false,
      "inputs": [
        {
          "indexed": true,
          "name": "_from",
          "type": "address"
        },
        {
          "indexed": true,
          "name": "_to",
          "type": "address"
        },
        {
          "indexed": false,
          "name": "_value",
          "type": "uint256"
        }
      ],
      "name": "Transfer",
      "type": "event"
    },
    {
      "anonymous": false,
      "inputs": [
        {
          "indexed": true,
          "name": "_owner",
          "type": "address"
        },
        {
          "indexed": true,
          "name": "_spender",
          "type": "address"
        },
        {
          "indexed": false,
          "name": "_value",
          "type": "uint256"
        }
      ],
      "name": "Approval",
      "type": "event"
    },
    {
      "constant": false,
      "inputs": [
        {
          "name": "newBuyPriceEth",
          "type": "uint256"
        },
        {
          "name": "newSellPriceEth",
          "type": "uint256"
        }
      ],
      "name": "setEtherPrices",
      "outputs": [],
      "payable": false,
      "stateMutability": "nonpayable",
      "type": "function"
    },
    {
      "constant": false,
      "inputs": [
        {
          "name": "newGasAmountInWei",
          "type": "uint256"
        }
      ],
      "name": "setGasForDCN",
      "outputs": [],
      "payable": false,
      "stateMutability": "nonpayable",
      "type": "function"
    },
    {
      "constant": false,
      "inputs": [
        {
          "name": "newDCNAmount",
          "type": "uint256"
        }
      ],
      "name": "setDCNForGas",
      "outputs": [],
      "payable": false,
      "stateMutability": "nonpayable",
      "type": "function"
    },
    {
      "constant": false,
      "inputs": [
        {
          "name": "newGasReserveInWei",
          "type": "uint256"
        }
      ],
      "name": "setGasReserve",
      "outputs": [],
      "payable": false,
      "stateMutability": "nonpayable",
      "type": "function"
    },
    {
      "constant": false,
      "inputs": [
        {
          "name": "minimumBalanceInWei",
          "type": "uint256"
        }
      ],
      "name": "setMinBalance",
      "outputs": [],
      "payable": false,
      "stateMutability": "nonpayable",
      "type": "function"
    },
    {
      "constant": false,
      "inputs": [],
      "name": "haltDirectTrade",
      "outputs": [],
      "payable": false,
      "stateMutability": "nonpayable",
      "type": "function"
    },
    {
      "constant": false,
      "inputs": [],
      "name": "unhaltDirectTrade",
      "outputs": [],
      "payable": false,
      "stateMutability": "nonpayable",
      "type": "function"
    },
    {
      "constant": false,
      "inputs": [
        {
          "name": "_to",
          "type": "address"
        },
        {
          "name": "_value",
          "type": "uint256"
        }
      ],
      "name": "transfer",
      "outputs": [
        {
          "name": "success",
          "type": "bool"
        }
      ],
      "payable": false,
      "stateMutability": "nonpayable",
      "type": "function"
    },
    {
      "constant": false,
      "inputs": [],
      "name": "buyDentacoinsAgainstEther",
      "outputs": [
        {
          "name": "amount",
          "type": "uint256"
        }
      ],
      "payable": true,
      "stateMutability": "payable",
      "type": "function"
    },
    {
      "constant": false,
      "inputs": [
        {
          "name": "amount",
          "type": "uint256"
        }
      ],
      "name": "sellDentacoinsAgainstEther",
      "outputs": [
        {
          "name": "revenue",
          "type": "uint256"
        }
      ],
      "payable": false,
      "stateMutability": "nonpayable",
      "type": "function"
    },
    {
      "constant": false,
      "inputs": [
        {
          "name": "amountOfEth",
          "type": "uint256"
        },
        {
          "name": "dcn",
          "type": "uint256"
        }
      ],
      "name": "refundToOwner",
      "outputs": [],
      "payable": false,
      "stateMutability": "nonpayable",
      "type": "function"
    }
  ],
  "bytecode": "0x60806040526040805190810160405280600981526020017f44656e7461636f696e00000000000000000000000000000000000000000000008152506004908051906020019062000051929190620001f9565b506040805190810160405280600281526020017fd9a8000000000000000000000000000000000000000000000000000000000000815250600590805190602001906200009f929190620001f9565b5030600660006101000a81548173ffffffffffffffffffffffffffffffffffffffff021916908373ffffffffffffffffffffffffffffffffffffffff1602179055506000600660146101000a81548160ff021916908360ff160217905550650746a528800060075566038d7ea4c6800060085566038d7ea4c680006009556611c37937e08000600a55600a600b55670de0b6b3a7640000600c55662386f26fc10000600d556000600e60006101000a81548160ff0219169083151502179055503480156200016c57600080fd5b50336000806101000a81548173ffffffffffffffffffffffffffffffffffffffff021916908373ffffffffffffffffffffffffffffffffffffffff160217905550600754600260003373ffffffffffffffffffffffffffffffffffffffff1673ffffffffffffffffffffffffffffffffffffffff16815260200190815260200160002081905550620002a8565b828054600181600116156101000203166002900490600052602060002090601f016020900481019282601f106200023c57805160ff19168380011785556200026d565b828001600101855582156200026d579182015b828111156200026c5782518255916020019190600101906200024f565b5b5090506200027c919062000280565b5090565b620002a591905b80821115620002a157600081600090555060010162000287565b5090565b90565b61219880620002b86000396000f300608060405260043610610175576000357c0100000000000000000000000000000000000000000000000000000000900463ffffffff168063015129a1146101f2578063025008241461021d57806306fdde031461023b578063095ea7b3146102cb5780630d5260e71461033057806318160ddd1461035d57806323b872dd14610388578063313ce5671461040d5780633fdccd8d1461043e57806341713a371461046b57806347f1d8d71461049a5780634b6a3334146104c55780635639bb3c146104fc5780635ff456cb146105275780635ff4ae321461055e57806370a082311461058b57806384c14b25146105e257806389224227146106235780638da5cb5b1461063a57806395d89b4114610691578063a9059cbb14610721578063b04247e914610786578063b42b14c4146107dd578063c72be83814610808578063c91d956c14610833578063dd62ed3e14610860578063ea43b79f146108d7578063eea7570e146108ee578063f2fde38b14610919575b6000809054906101000a900473ffffffffffffffffffffffffffffffffffffffff1673ffffffffffffffffffffffffffffffffffffffff163373ffffffffffffffffffffffffffffffffffffffff161415156101f057600e60009054906101000a900460ff1615156101e657600080fd5b6101ee61095c565b505b005b3480156101fe57600080fd5b50610207610b58565b6040518082815260200191505060405180910390f35b61022561095c565b6040518082815260200191505060405180910390f35b34801561024757600080fd5b50610250610b5e565b6040518080602001828103825283818151815260200191508051906020019080838360005b83811015610290578082015181840152602081019050610275565b50505050905090810190601f1680156102bd5780820380516001836020036101000a031916815260200191505b509250505060405180910390f35b3480156102d757600080fd5b50610316600480360381019080803573ffffffffffffffffffffffffffffffffffffffff16906020019092919080359060200190929190505050610bfc565b604051808215151515815260200191505060405180910390f35b34801561033c57600080fd5b5061035b60048036038101908080359060200190929190505050610cee565b005b34801561036957600080fd5b50610372610d53565b6040518082815260200191505060405180910390f35b34801561039457600080fd5b506103f3600480360381019080803573ffffffffffffffffffffffffffffffffffffffff169060200190929190803573ffffffffffffffffffffffffffffffffffffffff16906020019092919080359060200190929190505050610d59565b604051808215151515815260200191505060405180910390f35b34801561041957600080fd5b50610422611054565b604051808260ff1660ff16815260200191505060405180910390f35b34801561044a57600080fd5b5061046960048036038101908080359060200190929190505050611067565b005b34801561047757600080fd5b506104806110cc565b604051808215151515815260200191505060405180910390f35b3480156104a657600080fd5b506104af6110df565b6040518082815260200191505060405180910390f35b3480156104d157600080fd5b506104fa60048036038101908080359060200190929190803590602001909291905050506110e5565b005b34801561050857600080fd5b50610511611152565b6040518082815260200191505060405180910390f35b34801561053357600080fd5b5061055c6004803603810190808035906020019092919080359060200190929190505050611158565b005b34801561056a57600080fd5b506105896004803603810190808035906020019092919050505061143c565b005b34801561059757600080fd5b506105cc600480360381019080803573ffffffffffffffffffffffffffffffffffffffff1690602001909291905050506114a1565b6040518082815260200191505060405180910390f35b3480156105ee57600080fd5b5061060d600480360381019080803590602001909291905050506114ea565b6040518082815260200191505060405180910390f35b34801561062f57600080fd5b50610638611755565b005b34801561064657600080fd5b5061064f6117cd565b604051808273ffffffffffffffffffffffffffffffffffffffff1673ffffffffffffffffffffffffffffffffffffffff16815260200191505060405180910390f35b34801561069d57600080fd5b506106a66117f2565b6040518080602001828103825283818151815260200191508051906020019080838360005b838110156106e65780820151818401526020810190506106cb565b50505050905090810190601f1680156107135780820380516001836020036101000a031916815260200191505b509250505060405180910390f35b34801561072d57600080fd5b5061076c600480360381019080803573ffffffffffffffffffffffffffffffffffffffff16906020019092919080359060200190929190505050611890565b604051808215151515815260200191505060405180910390f35b34801561079257600080fd5b5061079b611e89565b604051808273ffffffffffffffffffffffffffffffffffffffff1673ffffffffffffffffffffffffffffffffffffffff16815260200191505060405180910390f35b3480156107e957600080fd5b506107f2611eaf565b6040518082815260200191505060405180910390f35b34801561081457600080fd5b5061081d611eb5565b6040518082815260200191505060405180910390f35b34801561083f57600080fd5b5061085e60048036038101908080359060200190929190505050611ebb565b005b34801561086c57600080fd5b506108c1600480360381019080803573ffffffffffffffffffffffffffffffffffffffff169060200190929190803573ffffffffffffffffffffffffffffffffffffffff169060200190929190505050611f20565b6040518082815260200191505060405180910390f35b3480156108e357600080fd5b506108ec611fa7565b005b3480156108fa57600080fd5b5061090361201f565b6040518082815260200191505060405180910390f35b34801561092557600080fd5b5061095a600480360381019080803573ffffffffffffffffffffffffffffffffffffffff169060200190929190505050612025565b005b600080600854148061096f575060085434105b1561097957600080fd5b6008543481151561098657fe5b04905080600260003073ffffffffffffffffffffffffffffffffffffffff1673ffffffffffffffffffffffffffffffffffffffff1681526020019081526020016000205410156109d557600080fd5b610a1e600260003373ffffffffffffffffffffffffffffffffffffffff1673ffffffffffffffffffffffffffffffffffffffff16815260200190815260200160002054826120e7565b600260003373ffffffffffffffffffffffffffffffffffffffff1673ffffffffffffffffffffffffffffffffffffffff16815260200190815260200160002081905550610aaa600260003073ffffffffffffffffffffffffffffffffffffffff1673ffffffffffffffffffffffffffffffffffffffff1681526020019081526020016000205482612111565b600260003073ffffffffffffffffffffffffffffffffffffffff1673ffffffffffffffffffffffffffffffffffffffff168152602001908152602001600020819055503373ffffffffffffffffffffffffffffffffffffffff163073ffffffffffffffffffffffffffffffffffffffff167fddf252ad1be2c89b69c2b068fc378daa952ba7f163c4a11628f55a4df523b3ef836040518082815260200191505060405180910390a380905090565b60095481565b60048054600181600116156101000203166002900480601f016020809104026020016040519081016040528092919081815260200182805460018160011615610100020316600290048015610bf45780601f10610bc957610100808354040283529160200191610bf4565b820191906000526020600020905b815481529060010190602001808311610bd757829003601f168201915b505050505081565b600081600360003373ffffffffffffffffffffffffffffffffffffffff1673ffffffffffffffffffffffffffffffffffffffff16815260200190815260200160002060008573ffffffffffffffffffffffffffffffffffffffff1673ffffffffffffffffffffffffffffffffffffffff168152602001908152602001600020819055508273ffffffffffffffffffffffffffffffffffffffff163373ffffffffffffffffffffffffffffffffffffffff167f8c5be1e5ebec7d5bd14f71427d1e84f3dd0314c0f7b2291e5b200ac8c7c3b925846040518082815260200191505060405180910390a36001905092915050565b6000809054906101000a900473ffffffffffffffffffffffffffffffffffffffff1673ffffffffffffffffffffffffffffffffffffffff163373ffffffffffffffffffffffffffffffffffffffff16141515610d4957600080fd5b80600c8190555050565b60075481565b600081600260008673ffffffffffffffffffffffffffffffffffffffff1673ffffffffffffffffffffffffffffffffffffffff1681526020019081526020016000205410158015610e26575081600360008673ffffffffffffffffffffffffffffffffffffffff1673ffffffffffffffffffffffffffffffffffffffff16815260200190815260200160002060003373ffffffffffffffffffffffffffffffffffffffff1673ffffffffffffffffffffffffffffffffffffffff1681526020019081526020016000205410155b8015610eb15750600260008473ffffffffffffffffffffffffffffffffffffffff1673ffffffffffffffffffffffffffffffffffffffff1681526020019081526020016000205482600260008673ffffffffffffffffffffffffffffffffffffffff1673ffffffffffffffffffffffffffffffffffffffff1681526020019081526020016000205401115b156110485781600260008673ffffffffffffffffffffffffffffffffffffffff1673ffffffffffffffffffffffffffffffffffffffff1681526020019081526020016000206000828254039250508190555081600260008573ffffffffffffffffffffffffffffffffffffffff1673ffffffffffffffffffffffffffffffffffffffff1681526020019081526020016000206000828254019250508190555081600360008673ffffffffffffffffffffffffffffffffffffffff1673ffffffffffffffffffffffffffffffffffffffff16815260200190815260200160002060003373ffffffffffffffffffffffffffffffffffffffff1673ffffffffffffffffffffffffffffffffffffffff168152602001908152602001600020600082825403925050819055508273ffffffffffffffffffffffffffffffffffffffff168473ffffffffffffffffffffffffffffffffffffffff167fddf252ad1be2c89b69c2b068fc378daa952ba7f163c4a11628f55a4df523b3ef846040518082815260200191505060405180910390a36001905061104d565b600090505b9392505050565b600660149054906101000a900460ff1681565b6000809054906101000a900473ffffffffffffffffffffffffffffffffffffffff1673ffffffffffffffffffffffffffffffffffffffff163373ffffffffffffffffffffffffffffffffffffffff161415156110c257600080fd5b80600b8190555050565b600e60009054906101000a900460ff1681565b600d5481565b6000809054906101000a900473ffffffffffffffffffffffffffffffffffffffff1673ffffffffffffffffffffffffffffffffffffffff163373ffffffffffffffffffffffffffffffffffffffff1614151561114057600080fd5b81600881905550806009819055505050565b60085481565b60008060009054906101000a900473ffffffffffffffffffffffffffffffffffffffff1673ffffffffffffffffffffffffffffffffffffffff163373ffffffffffffffffffffffffffffffffffffffff161415156111b557600080fd5b6111c783670de0b6b3a764000061212a565b90503373ffffffffffffffffffffffffffffffffffffffff166108fc829081150290604051600060405180830381858888f19350505050151561120957600080fd5b3373ffffffffffffffffffffffffffffffffffffffff163073ffffffffffffffffffffffffffffffffffffffff167fddf252ad1be2c89b69c2b068fc378daa952ba7f163c4a11628f55a4df523b3ef836040518082815260200191505060405180910390a381600260003073ffffffffffffffffffffffffffffffffffffffff1673ffffffffffffffffffffffffffffffffffffffff1681526020019081526020016000205410156112ba57600080fd5b611303600260003373ffffffffffffffffffffffffffffffffffffffff1673ffffffffffffffffffffffffffffffffffffffff16815260200190815260200160002054836120e7565b600260003373ffffffffffffffffffffffffffffffffffffffff1673ffffffffffffffffffffffffffffffffffffffff1681526020019081526020016000208190555061138f600260003073ffffffffffffffffffffffffffffffffffffffff1673ffffffffffffffffffffffffffffffffffffffff1681526020019081526020016000205483612111565b600260003073ffffffffffffffffffffffffffffffffffffffff1673ffffffffffffffffffffffffffffffffffffffff168152602001908152602001600020819055503373ffffffffffffffffffffffffffffffffffffffff163073ffffffffffffffffffffffffffffffffffffffff167fddf252ad1be2c89b69c2b068fc378daa952ba7f163c4a11628f55a4df523b3ef846040518082815260200191505060405180910390a3505050565b6000809054906101000a900473ffffffffffffffffffffffffffffffffffffffff1673ffffffffffffffffffffffffffffffffffffffff163373ffffffffffffffffffffffffffffffffffffffff1614151561149757600080fd5b80600a8190555050565b6000600260008373ffffffffffffffffffffffffffffffffffffffff1673ffffffffffffffffffffffffffffffffffffffff168152602001908152602001600020549050919050565b60008060095414806114fd5750600b5482105b1561150757600080fd5b81600260003373ffffffffffffffffffffffffffffffffffffffff1673ffffffffffffffffffffffffffffffffffffffff16815260200190815260200160002054101561155357600080fd5b61155f8260095461212a565b9050600c546115853073ffffffffffffffffffffffffffffffffffffffff163183612111565b101561159057600080fd5b3373ffffffffffffffffffffffffffffffffffffffff166108fc829081150290604051600060405180830381858888f1935050505015156115d057600080fd5b611619600260003073ffffffffffffffffffffffffffffffffffffffff1673ffffffffffffffffffffffffffffffffffffffff16815260200190815260200160002054836120e7565b600260003073ffffffffffffffffffffffffffffffffffffffff1673ffffffffffffffffffffffffffffffffffffffff168152602001908152602001600020819055506116a5600260003373ffffffffffffffffffffffffffffffffffffffff1673ffffffffffffffffffffffffffffffffffffffff1681526020019081526020016000205483612111565b600260003373ffffffffffffffffffffffffffffffffffffffff1673ffffffffffffffffffffffffffffffffffffffff168152602001908152602001600020819055503373ffffffffffffffffffffffffffffffffffffffff163073ffffffffffffffffffffffffffffffffffffffff167fddf252ad1be2c89b69c2b068fc378daa952ba7f163c4a11628f55a4df523b3ef836040518082815260200191505060405180910390a3809050919050565b6000809054906101000a900473ffffffffffffffffffffffffffffffffffffffff1673ffffffffffffffffffffffffffffffffffffffff163373ffffffffffffffffffffffffffffffffffffffff161415156117b057600080fd5b6000600e60006101000a81548160ff021916908315150217905550565b6000809054906101000a900473ffffffffffffffffffffffffffffffffffffffff1681565b60058054600181600116156101000203166002900480601f0160208091040260200160405190810160405280929190818152602001828054600181600116156101000203166002900480156118885780601f1061185d57610100808354040283529160200191611888565b820191906000526020600020905b81548152906001019060200180831161186b57829003601f168201915b505050505081565b6000600b548210156118a157600080fd5b6000809054906101000a900473ffffffffffffffffffffffffffffffffffffffff1673ffffffffffffffffffffffffffffffffffffffff163373ffffffffffffffffffffffffffffffffffffffff161415801561194b5750600660009054906101000a900473ffffffffffffffffffffffffffffffffffffffff1673ffffffffffffffffffffffffffffffffffffffff168373ffffffffffffffffffffffffffffffffffffffff16145b80156119635750600e60009054906101000a900460ff165b1561197b57611971826114ea565b5060019050611e83565b81600260003373ffffffffffffffffffffffffffffffffffffffff1673ffffffffffffffffffffffffffffffffffffffff1681526020019081526020016000205410158015611a495750600260008473ffffffffffffffffffffffffffffffffffffffff1673ffffffffffffffffffffffffffffffffffffffff1681526020019081526020016000205482600260008673ffffffffffffffffffffffffffffffffffffffff1673ffffffffffffffffffffffffffffffffffffffff1681526020019081526020016000205401115b15611e7d57611a97600260003373ffffffffffffffffffffffffffffffffffffffff1673ffffffffffffffffffffffffffffffffffffffff1681526020019081526020016000205483612111565b600260003373ffffffffffffffffffffffffffffffffffffffff1673ffffffffffffffffffffffffffffffffffffffff16815260200190815260200160002081905550600d543373ffffffffffffffffffffffffffffffffffffffff163110158015611b1c5750600d548373ffffffffffffffffffffffffffffffffffffffff163110155b15611c1b57611b6a600260008573ffffffffffffffffffffffffffffffffffffffff1673ffffffffffffffffffffffffffffffffffffffff16815260200190815260200160002054836120e7565b600260008573ffffffffffffffffffffffffffffffffffffffff1673ffffffffffffffffffffffffffffffffffffffff168152602001908152602001600020819055508273ffffffffffffffffffffffffffffffffffffffff163373ffffffffffffffffffffffffffffffffffffffff167fddf252ad1be2c89b69c2b068fc378daa952ba7f163c4a11628f55a4df523b3ef846040518082815260200191505060405180910390a360019050611e83565b611c66600260003073ffffffffffffffffffffffffffffffffffffffff1673ffffffffffffffffffffffffffffffffffffffff16815260200190815260200160002054600b546120e7565b600260003073ffffffffffffffffffffffffffffffffffffffff1673ffffffffffffffffffffffffffffffffffffffff16815260200190815260200160002081905550611cfd600260008573ffffffffffffffffffffffffffffffffffffffff1673ffffffffffffffffffffffffffffffffffffffff16815260200190815260200160002054611cf884600b54612111565b6120e7565b600260008573ffffffffffffffffffffffffffffffffffffffff1673ffffffffffffffffffffffffffffffffffffffff168152602001908152602001600020819055508273ffffffffffffffffffffffffffffffffffffffff163373ffffffffffffffffffffffffffffffffffffffff167fddf252ad1be2c89b69c2b068fc378daa952ba7f163c4a11628f55a4df523b3ef611d9b85600b54612111565b6040518082815260200191505060405180910390a3600d543373ffffffffffffffffffffffffffffffffffffffff16311015611e14573373ffffffffffffffffffffffffffffffffffffffff166108fc600a549081150290604051600060405180830381858888f193505050501515611e1357600080fd5b5b600d548373ffffffffffffffffffffffffffffffffffffffff16311015611e78578273ffffffffffffffffffffffffffffffffffffffff166108fc600a549081150290604051600060405180830381858888f193505050501515611e7757600080fd5b5b611e82565b600080fd5b5b92915050565b600660009054906101000a900473ffffffffffffffffffffffffffffffffffffffff1681565b600b5481565b600a5481565b6000809054906101000a900473ffffffffffffffffffffffffffffffffffffffff1673ffffffffffffffffffffffffffffffffffffffff163373ffffffffffffffffffffffffffffffffffffffff16141515611f1657600080fd5b80600d8190555050565b6000600360008473ffffffffffffffffffffffffffffffffffffffff1673ffffffffffffffffffffffffffffffffffffffff16815260200190815260200160002060008373ffffffffffffffffffffffffffffffffffffffff1673ffffffffffffffffffffffffffffffffffffffff16815260200190815260200160002054905092915050565b6000809054906101000a900473ffffffffffffffffffffffffffffffffffffffff1673ffffffffffffffffffffffffffffffffffffffff163373ffffffffffffffffffffffffffffffffffffffff1614151561200257600080fd5b6001600e60006101000a81548160ff021916908315150217905550565b600c5481565b6000809054906101000a900473ffffffffffffffffffffffffffffffffffffffff1673ffffffffffffffffffffffffffffffffffffffff163373ffffffffffffffffffffffffffffffffffffffff1614151561208057600080fd5b60008173ffffffffffffffffffffffffffffffffffffffff1614156120a457600080fd5b806000806101000a81548173ffffffffffffffffffffffffffffffffffffffff021916908373ffffffffffffffffffffffffffffffffffffffff16021790555050565b60008082840190506121078482101580156121025750838210155b61215d565b8091505092915050565b600061211f8383111561215d565b818303905092915050565b6000808284029050612153600085148061214e575083858381151561214b57fe5b04145b61215d565b8091505092915050565b80151561216957600080fd5b505600a165627a7a723058202580cc4183678b93f08e2c6c976adc25564adfcf88b06cf76cab8602596d53b20029",
  "source": "pragma solidity ^0.4.8;\r\n\r\n\r\n\r\n/**\r\n * Dentacoin extended ERC20 token contract created on February the 14th, 2017 by Dentacoin B.V. in the Netherlands\r\n *\r\n * For terms and conditions visit https://dentacoin.com\r\n */\r\n\r\n\r\n\r\ncontract owned {\r\n    address public owner;\r\n\r\n    function owned() {\r\n        owner = msg.sender;\r\n    }\r\n\r\n    modifier onlyOwner {\r\n        if (msg.sender != owner) throw;\r\n        _;\r\n    }\r\n\r\n    function transferOwnership(address newOwner) onlyOwner {\r\n        if (newOwner == 0x0) throw;\r\n        owner = newOwner;\r\n    }\r\n}\r\n\r\n\r\n\r\n\r\n/**\r\n * Overflow aware uint math functions.\r\n */\r\ncontract SafeMath {\r\n  //internals\r\n\r\n  function safeMul(uint a, uint b) internal returns (uint) {\r\n    uint c = a * b;\r\n    assert(a == 0 || c / a == b);\r\n    return c;\r\n  }\r\n\r\n  function safeSub(uint a, uint b) internal returns (uint) {\r\n    assert(b <= a);\r\n    return a - b;\r\n  }\r\n\r\n  function safeAdd(uint a, uint b) internal returns (uint) {\r\n    uint c = a + b;\r\n    assert(c>=a && c>=b);\r\n    return c;\r\n  }\r\n\r\n  function assert(bool assertion) internal {\r\n    if (!assertion) throw;\r\n  }\r\n}\r\n\r\n\r\n\r\n\r\ncontract Token {\r\n    /* This is a slight change to the ERC20 base standard.\r\n    function totalSupply() constant returns (uint256 supply);\r\n    is replaced with:\r\n    uint256 public totalSupply;\r\n    This automatically creates a getter function for the totalSupply.\r\n    This is moved to the base contract since public getter functions are not\r\n    currently recognised as an implementation of the matching abstract\r\n    function by the compiler.\r\n    */\r\n    /// total amount of tokens\r\n    uint256 public totalSupply;\r\n\r\n\r\n    /// @param _owner The address from which the balance will be retrieved\r\n    /// @return The balance\r\n    function balanceOf(address _owner) constant returns (uint256 balance);\r\n\r\n    /// @notice send `_value` token to `_to` from `msg.sender`\r\n    /// @param _to The address of the recipient\r\n    /// @param _value The amount of token to be transferred\r\n    /// @return Whether the transfer was successful or not\r\n    function transfer(address _to, uint256 _value) returns (bool success);\r\n\r\n    /// @notice send `_value` token to `_to` from `_from` on the condition it is approved by `_from`\r\n    /// @param _from The address of the sender\r\n    /// @param _to The address of the recipient\r\n    /// @param _value The amount of token to be transferred\r\n    /// @return Whether the transfer was successful or not\r\n    function transferFrom(address _from, address _to, uint256 _value) returns (bool success);\r\n\r\n    /// @notice `msg.sender` approves `_spender` to spend `_value` tokens\r\n    /// @param _spender The address of the account able to transfer the tokens\r\n    /// @param _value The amount of tokens to be approved for transfer\r\n    /// @return Whether the approval was successful or not\r\n    function approve(address _spender, uint256 _value) returns (bool success);\r\n\r\n    /// @param _owner The address of the account owning tokens\r\n    /// @param _spender The address of the account able to transfer the tokens\r\n    /// @return Amount of remaining tokens allowed to spent\r\n    function allowance(address _owner, address _spender) constant returns (uint256 remaining);\r\n\r\n    event Transfer(address indexed _from, address indexed _to, uint256 _value);\r\n    event Approval(address indexed _owner, address indexed _spender, uint256 _value);\r\n}\r\n\r\n\r\n\r\n\r\n\r\ncontract StandardToken is Token {\r\n\r\n    function transfer(address _to, uint256 _value) returns (bool success) {\r\n        //Default assumes totalSupply can't be over max (2^256 - 1).\r\n        //If your token leaves out totalSupply and can issue more tokens as time goes on, you need to check if it doesn't wrap.\r\n        //Replace the if with this one instead.\r\n        if (balances[msg.sender] >= _value && balances[_to] + _value > balances[_to]) {\r\n        //if (balances[msg.sender] >= _value && _value > 0) {\r\n            balances[msg.sender] -= _value;\r\n            balances[_to] += _value;\r\n            Transfer(msg.sender, _to, _value);\r\n            return true;\r\n        } else { return false; }\r\n    }\r\n\r\n    function transferFrom(address _from, address _to, uint256 _value) returns (bool success) {\r\n        //same as above. Replace this line with the following if you want to protect against wrapping uints.\r\n        if (balances[_from] >= _value && allowed[_from][msg.sender] >= _value && balances[_to] + _value > balances[_to]) {\r\n        //if (balances[_from] >= _value && allowed[_from][msg.sender] >= _value && _value > 0) {\r\n            balances[_from] -= _value;\r\n            balances[_to] += _value;\r\n            allowed[_from][msg.sender] -= _value;\r\n            Transfer(_from, _to, _value);\r\n            return true;\r\n        } else { return false; }\r\n    }\r\n\r\n    function balanceOf(address _owner) constant returns (uint256 balance) {\r\n        return balances[_owner];\r\n    }\r\n\r\n    function approve(address _spender, uint256 _value) returns (bool success) {\r\n        allowed[msg.sender][_spender] = _value;\r\n        Approval(msg.sender, _spender, _value);\r\n        return true;\r\n    }\r\n\r\n    function allowance(address _owner, address _spender) constant returns (uint256 remaining) {\r\n      return allowed[_owner][_spender];\r\n    }\r\n\r\n    mapping (address => uint256) balances;\r\n    mapping (address => mapping (address => uint256)) allowed;\r\n}\r\n\r\n\r\n\r\n\r\n\r\n\r\n\r\n/* Dentacoin Contract */\r\ncontract DentacoinToken is owned, SafeMath, StandardToken {\r\n    string public name = \"Dentacoin\";                                       // Set the name for display purposes\r\n    string public symbol = \"\";                                             // Set the symbol for display purposes\r\n    address public DentacoinAddress = this;                                 // Address of the Dentacoin token\r\n    uint8 public decimals = 0;                                              // Amount of decimals for display purposes\r\n    uint256 public totalSupply = 8000000000000;                             // Set total supply of Dentacoins (eight trillion)\r\n    uint256 public buyPriceEth = 1 finney;                                  // Buy price for Dentacoins\r\n    uint256 public sellPriceEth = 1 finney;                                 // Sell price for Dentacoins\r\n    uint256 public gasForDCN = 5 finney;                                    // Eth from contract against DCN to pay tx (10 times sellPriceEth)\r\n    uint256 public DCNForGas = 10;                                          // DCN to contract against eth to pay tx\r\n    uint256 public gasReserve = 1 ether;                                    // Eth amount that remains in the contract for gas and can't be sold\r\n    uint256 public minBalanceForAccounts = 10 finney;                       // Minimal eth balance of sender and recipient\r\n    bool public directTradeAllowed = false;                                 // Halt trading DCN by sending to the contract directly\r\n\r\n\r\n/* Initializes contract with initial supply tokens to the creator of the contract */\r\n    function DentacoinToken() {\r\n        balances[msg.sender] = totalSupply;                                 // Give the creator all tokens\r\n    }\r\n\r\n\r\n/* Constructor parameters */\r\n    function setEtherPrices(uint256 newBuyPriceEth, uint256 newSellPriceEth) onlyOwner {\r\n        buyPriceEth = newBuyPriceEth;                                       // Set prices to buy and sell DCN\r\n        sellPriceEth = newSellPriceEth;\r\n    }\r\n    function setGasForDCN(uint newGasAmountInWei) onlyOwner {\r\n        gasForDCN = newGasAmountInWei;\r\n    }\r\n    function setDCNForGas(uint newDCNAmount) onlyOwner {\r\n        DCNForGas = newDCNAmount;\r\n    }\r\n    function setGasReserve(uint newGasReserveInWei) onlyOwner {\r\n        gasReserve = newGasReserveInWei;\r\n    }\r\n    function setMinBalance(uint minimumBalanceInWei) onlyOwner {\r\n        minBalanceForAccounts = minimumBalanceInWei;\r\n    }\r\n\r\n\r\n/* Halts or unhalts direct trades without the sell/buy functions below */\r\n    function haltDirectTrade() onlyOwner {\r\n        directTradeAllowed = false;\r\n    }\r\n    function unhaltDirectTrade() onlyOwner {\r\n        directTradeAllowed = true;\r\n    }\r\n\r\n\r\n/* Transfer function extended by check of eth balances and pay transaction costs with DCN if not enough eth */\r\n    function transfer(address _to, uint256 _value) returns (bool success) {\r\n        if (_value < DCNForGas) throw;                                      // Prevents drain and spam\r\n        if (msg.sender != owner && _to == DentacoinAddress && directTradeAllowed) {\r\n            sellDentacoinsAgainstEther(_value);                             // Trade Dentacoins against eth by sending to the token contract\r\n            return true;\r\n        }\r\n\r\n        if (balances[msg.sender] >= _value && balances[_to] + _value > balances[_to]) {               // Check if sender has enough and for overflows\r\n            balances[msg.sender] = safeSub(balances[msg.sender], _value);   // Subtract DCN from the sender\r\n\r\n            if (msg.sender.balance >= minBalanceForAccounts && _to.balance >= minBalanceForAccounts) {    // Check if sender can pay gas and if recipient could\r\n                balances[_to] = safeAdd(balances[_to], _value);             // Add the same amount of DCN to the recipient\r\n                Transfer(msg.sender, _to, _value);                          // Notify anyone listening that this transfer took place\r\n                return true;\r\n            } else {\r\n                balances[this] = safeAdd(balances[this], DCNForGas);        // Pay DCNForGas to the contract\r\n                balances[_to] = safeAdd(balances[_to], safeSub(_value, DCNForGas));  // Recipient balance -DCNForGas\r\n                Transfer(msg.sender, _to, safeSub(_value, DCNForGas));      // Notify anyone listening that this transfer took place\r\n\r\n                if(msg.sender.balance < minBalanceForAccounts) {\r\n                    if(!msg.sender.send(gasForDCN)) throw;                  // Send eth to sender\r\n                  }\r\n                if(_to.balance < minBalanceForAccounts) {\r\n                    if(!_to.send(gasForDCN)) throw;                         // Send eth to recipient\r\n                }\r\n            }\r\n        } else { throw; }\r\n    }\r\n\r\n\r\n/* User buys Dentacoins and pays in Ether */\r\n    function buyDentacoinsAgainstEther() payable returns (uint amount) {\r\n        if (buyPriceEth == 0 || msg.value < buyPriceEth) throw;             // Avoid dividing 0, sending small amounts and spam\r\n        amount = msg.value / buyPriceEth;                                   // Calculate the amount of Dentacoins\r\n        if (balances[this] < amount) throw;                                 // Check if it has enough to sell\r\n        balances[msg.sender] = safeAdd(balances[msg.sender], amount);       // Add the amount to buyer's balance\r\n        balances[this] = safeSub(balances[this], amount);                   // Subtract amount from Dentacoin balance\r\n        Transfer(this, msg.sender, amount);                                 // Execute an event reflecting the change\r\n        return amount;\r\n    }\r\n\r\n\r\n/* User sells Dentacoins and gets Ether */\r\n    function sellDentacoinsAgainstEther(uint256 amount) returns (uint revenue) {\r\n        if (sellPriceEth == 0 || amount < DCNForGas) throw;                 // Avoid selling and spam\r\n        if (balances[msg.sender] < amount) throw;                           // Check if the sender has enough to sell\r\n        revenue = safeMul(amount, sellPriceEth);                            // Revenue = eth that will be send to the user\r\n        if (safeSub(this.balance, revenue) < gasReserve) throw;             // Keep min amount of eth in contract to provide gas for transactions\r\n        if (!msg.sender.send(revenue)) {                                    // Send ether to the seller. It's important\r\n            throw;                                                          // To do this last to avoid recursion attacks\r\n        } else {\r\n            balances[this] = safeAdd(balances[this], amount);               // Add the amount to Dentacoin balance\r\n            balances[msg.sender] = safeSub(balances[msg.sender], amount);   // Subtract the amount from seller's balance\r\n            Transfer(this, msg.sender, revenue);                            // Execute an event reflecting on the change\r\n            return revenue;                                                 // End function and returns\r\n        }\r\n    }\r\n\r\n\r\n/* refund to owner */\r\n    function refundToOwner (uint256 amountOfEth, uint256 dcn) onlyOwner {\r\n        uint256 eth = safeMul(amountOfEth, 1 ether);\r\n        if (!msg.sender.send(eth)) {                                        // Send ether to the owner. It's important\r\n            throw;                                                          // To do this last to avoid recursion attacks\r\n        } else {\r\n            Transfer(this, msg.sender, eth);                                // Execute an event reflecting on the change\r\n        }\r\n        if (balances[this] < dcn) throw;                                    // Check if it has enough to sell\r\n        balances[msg.sender] = safeAdd(balances[msg.sender], dcn);          // Add the amount to buyer's balance\r\n        balances[this] = safeSub(balances[this], dcn);                      // Subtract amount from seller's balance\r\n        Transfer(this, msg.sender, dcn);                                    // Execute an event reflecting the change\r\n    }\r\n\r\n\r\n/* This unnamed function is called whenever someone tries to send ether to it and possibly sells Dentacoins */\r\n    function() payable {\r\n        if (msg.sender != owner) {\r\n            if (!directTradeAllowed) throw;\r\n            buyDentacoinsAgainstEther();                                    // Allow direct trades by sending eth to the contract\r\n        }\r\n    }\r\n}\r\n\r\n/* JJG */",
  "sourcePath": "D:\\wamp\\www\\wallet\\contracts\\DentacoinToken.sol",
  "compiler": {
    "name": "solc",
    "version": "0.4.24+commit.e67f0147.Emscripten.clang"
  },
  "schemaVersion": "2.0.1",
  "updatedAt": "2018-10-02T06:02:55.460Z"
}